{"priority_fee":"201756000000000","raw_input":"0xac9650d800000000000000000000000000000000000000000000000000000000000000200000000000000000000000000000000000000000000000000000000000000003000000000000000000000000000000000000000000000000000000000000006000000000000000000000000000000000000000000000000000000000000000e0000000000000000000000000000000000000000000000000000000000000018000000000000000000000000000000000000000000000000000000000000000447d39aaf1000000000000000000000000e5474698f1a1c0381bb21476bda1a4968d017d3a00000000000000000000000000000000000000000000000000354a6ba7a18000000000000000000000000000000000000000000000000000000000000000000000000000000000000000000000000000000000000000000000000064e6d66ac8000000000000000000000000e0105cf6930e8767adb5425ddc7f8b6df25699a6000000000000000000000000e5474698f1a1c0381bb21476bda1a4968d017d3a00000000000000000000000000000000000000000000000000000000000f4240000000000000000000000000000000000000000000000000000000000000000000000000000000000000000000000000000000000000000000000324bdb32eff00000000000000000000000000000000000000000000000000000000000000200000000000000000000000000000000000000000000000000000000000000200000000000000000000000000000000000000003f1bdf10116048a5934000000000000000000000000000000000000000000000000000000000000000000f42400000000000000000000000000000000000000000000000000000000000000000000000000000000000000000000000000000000000000000000000000000000000000000000000000000000000000000000000000000000000354a6ba7a1800000000000000000000000000000000000000000000000000000000000000000000000000000000000000000000000000000000000000000000000000000000000000000000000000000000000000000000000000000000000000000000000000000000000000000000000000000000000000000000000000000000000000000020000000000000000000000000000000000000000000000000000000000000000000000000000000000000000000000000000000000000000000000000000000100000000000000000000000000000000000000000000000000000000000000000000000000000000000000000000000000000000000000000000000000000000000000000000000000000000000000000000000000000000000000000000000000000000000000000000000000000000000000000000000000000000000002e0000000000000000000000000b769befa05c7d9b08062630e351e865d3f49c56d0000000000000000000000000000000000000000000000000000000000000000000000000000000000000000000000000000000000000000000000000000000000000000000000000000000068de251394ccfda893cc6796b68e5a8b6944f66e000000000000000000000000e0105cf6930e8767adb5425ddc7f8b6df25699a600000000000000000000000000000000000000000000000000000000000000c00000000000000000000000000000000000000000000000000000000000000000000000000000000000000000000000000000000000000000000000000000000000000000000000000000000000000000000000000000000000000000","result":"awaiting_internal_transactions","hash":"0x4c4a9bb18be4ddf9b6f87929503a4756325e8f4a2e6bab812325bfe9f79ac82b","max_fee_per_gas":"1500000000","revert_reason":null,"confirmation_duration":[0,669.0],"transaction_burnt_fee":"0","type":2,"token_transfers_overflow":false,"confirmations":270,"position":0,"max_priority_fee_per_gas":"1500000000","transaction_tag":null,"created_contract":null,"value":"15000000000000000","from":{"ens_domain_name":null,"hash":"0xb769BEFa05c7D9B08062630E351e865d3F49c56D","implementations":[],"is_contract":false,"is_scam":false,"is_verified":false,"metadata":null,"name":null,"private_tags":[],"proxy_type":null,"public_tags":[],"watchlist_names":[]},"gas_used":"134504","status":"error","to":{"ens_domain_name":null,"hash":"0xD5c0a7DFe2e4a5D1BE5927d0816393d145a3f0d5","implementations":[],"is_contract":true,"is_scam":false,"is_verified":true,"metadata":null,"name":"ExchangeRouter","private_tags":[],"proxy_type":"unknown","public_tags":[],"watchlist_names":[]},"authorization_list":[],"method":"multicall","fee":{"type":"actual","value":"201756000000000"},"actions":[],"gas_limit":"12250000","gas_price":"1500000000","decoded_input":{"method_call":"multicall(bytes[] data)","method_id":"ac9650d8","parameters":[{"name":"data","type":"bytes[]","value":["0x7d39aaf1000000000000000000000000e5474698f1a1c0381bb21476bda1a4968d017d3a00000000000000000000000000000000000000000000000000354a6ba7a18000","0xe6d66ac8000000000000000000000000e0105cf6930e8767adb5425ddc7f8b6df25699a6000000000000000000000000e5474698f1a1c0381bb21476bda1a4968d017d3a00000000000000000000000000000000000000000000000000000000000f4240","0xbdb32eff00000000000000000000000000000000000000000000000000000000000000200000000000000000000000000000000000000000000000000000000000000200000000000000000000000000000000000000003f1bdf10116048a5934000000000000000000000000000000000000000000000000000000000000000000f42400000000000000000000000000000000000000000000000000000000000000000000000000000000000000000000000000000000000000000000000000000000000000000000000000000000000000000000000000000000000354a6ba7a1800000000000000000000000000000000000000000000000000000000000000000000000000000000000000000000000000000000000000000000000000000000000000000000000000000000000000000000000000000000000000000000000000000000000000000000000000000000000000000000000000000000000000000020000000000000000000000000000000000000000000000000000000000000000000000000000000000000000000000000000000000000000000000000000000100000000000000000000000000000000000000000000000000000000000000000000000000000000000000000000000000000000000000000000000000000000000000000000000000000000000000000000000000000000000000000000000000000000000000000000000000000000000000000000000000000000000002e0000000000000000000000000b769befa05c7d9b08062630e351e865d3f49c56d0000000000000000000000000000000000000000000000000000000000000000000000000000000000000000000000000000000000000000000000000000000000000000000000000000000068de251394ccfda893cc6796b68e5a8b6944f66e000000000000000000000000e0105cf6930e8767adb5425ddc7f8b6df25699a600000000000000000000000000000000000000000000000000000000000000c000000000000000000000000000000000000000000000000000000000000000000000000000000000000000000000000000000000000000000000000000000000"]}]},"token_transfers":[],"base_fee_per_gas":"0","timestamp":"2026-01-06T03:24:09.000000Z","nonce":17595,"historic_exchange_rate":null,"transaction_types":["coin_transfer","contract_call"],"exchange_rate":null,"block_number":10833396,"has_error_in_internal_transactions":null}